{
  "contractName": "MovieContract",
  "abi": [
    {
      "inputs": [
        {
          "internalType": "string",
          "name": "_movieName",
          "type": "string"
        },
        {
          "internalType": "address payable",
          "name": "_movieCreator",
          "type": "address"
        }
      ],
      "payable": false,
      "stateMutability": "nonpayable",
      "type": "constructor"
    },
    {
      "constant": true,
      "inputs": [],
      "name": "creationDate",
      "outputs": [
        {
          "internalType": "uint256",
          "name": "",
          "type": "uint256"
        }
      ],
      "payable": false,
      "stateMutability": "view",
      "type": "function"
    },
    {
      "constant": true,
      "inputs": [],
      "name": "deadline",
      "outputs": [
        {
          "internalType": "uint256",
          "name": "",
          "type": "uint256"
        }
      ],
      "payable": false,
      "stateMutability": "view",
      "type": "function"
    },
    {
      "constant": true,
      "inputs": [
        {
          "internalType": "address",
          "name": "",
          "type": "address"
        }
      ],
      "name": "investedAmount",
      "outputs": [
        {
          "internalType": "uint256",
          "name": "",
          "type": "uint256"
        }
      ],
      "payable": false,
      "stateMutability": "view",
      "type": "function"
    },
    {
      "constant": true,
      "inputs": [
        {
          "internalType": "uint256",
          "name": "",
          "type": "uint256"
        }
      ],
      "name": "investors",
      "outputs": [
        {
          "internalType": "string",
          "name": "name",
          "type": "string"
        },
        {
          "internalType": "string",
          "name": "contactDetails",
          "type": "string"
        },
        {
          "internalType": "uint256",
          "name": "tokensBought",
          "type": "uint256"
        }
      ],
      "payable": false,
      "stateMutability": "view",
      "type": "function"
    },
    {
      "constant": true,
      "inputs": [],
      "name": "movie",
      "outputs": [
        {
          "internalType": "string",
          "name": "name",
          "type": "string"
        },
        {
          "internalType": "string",
          "name": "details",
          "type": "string"
        },
        {
          "internalType": "string",
          "name": "ipfsHash",
          "type": "string"
        },
        {
          "internalType": "uint256",
          "name": "deadline",
          "type": "uint256"
        }
      ],
      "payable": false,
      "stateMutability": "view",
      "type": "function"
    },
    {
      "constant": true,
      "inputs": [],
      "name": "movieName",
      "outputs": [
        {
          "internalType": "string",
          "name": "",
          "type": "string"
        }
      ],
      "payable": false,
      "stateMutability": "view",
      "type": "function"
    },
    {
      "constant": true,
      "inputs": [],
      "name": "owner",
      "outputs": [
        {
          "internalType": "address",
          "name": "",
          "type": "address"
        }
      ],
      "payable": false,
      "stateMutability": "view",
      "type": "function"
    },
    {
      "constant": true,
      "inputs": [],
      "name": "token",
      "outputs": [
        {
          "internalType": "contract TokenFactory",
          "name": "",
          "type": "address"
        }
      ],
      "payable": false,
      "stateMutability": "view",
      "type": "function"
    },
    {
      "constant": true,
      "inputs": [],
      "name": "tokenAddress",
      "outputs": [
        {
          "internalType": "address",
          "name": "",
          "type": "address"
        }
      ],
      "payable": false,
      "stateMutability": "view",
      "type": "function"
    },
    {
      "constant": true,
      "inputs": [],
      "name": "tokenName",
      "outputs": [
        {
          "internalType": "string",
          "name": "",
          "type": "string"
        }
      ],
      "payable": false,
      "stateMutability": "view",
      "type": "function"
    },
    {
      "constant": true,
      "inputs": [],
      "name": "totalSupply",
      "outputs": [
        {
          "internalType": "uint256",
          "name": "",
          "type": "uint256"
        }
      ],
      "payable": false,
      "stateMutability": "view",
      "type": "function"
    },
    {
      "constant": false,
      "inputs": [
        {
          "internalType": "string",
          "name": "_details",
          "type": "string"
        },
        {
          "internalType": "string",
          "name": "_ipfs",
          "type": "string"
        },
        {
          "internalType": "uint256",
          "name": "_timeInDays",
          "type": "uint256"
        }
      ],
      "name": "addMovie",
      "outputs": [],
      "payable": false,
      "stateMutability": "nonpayable",
      "type": "function"
    },
    {
      "constant": false,
      "inputs": [
        {
          "internalType": "string",
          "name": "_symbol",
          "type": "string"
        },
        {
          "internalType": "string",
          "name": "_name",
          "type": "string"
        },
        {
          "internalType": "uint256",
          "name": "_totalSupply",
          "type": "uint256"
        }
      ],
      "name": "createMovieToken",
      "outputs": [],
      "payable": false,
      "stateMutability": "nonpayable",
      "type": "function"
    }
  ],
  "bytecode": "0x60806040523480156200001157600080fd5b50604051620025ac380380620025ac833981810160405260408110156200003757600080fd5b81019080805160405193929190846401000000008211156200005857600080fd5b838201915060208201858111156200006f57600080fd5b82518660018202830111640100000000821117156200008d57600080fd5b8083526020830192505050908051906020019080838360005b83811015620000c3578082015181840152602081019050620000a6565b50505050905090810190601f168015620000f15780820380516001836020036101000a031916815260200191505b506040526020018051906020019092919050505080600560006101000a81548173ffffffffffffffffffffffffffffffffffffffff021916908373ffffffffffffffffffffffffffffffffffffffff16021790555081600090805190602001906200015e92919062000167565b50505062000216565b828054600181600116156101000203166002900490600052602060002090601f016020900481019282601f10620001aa57805160ff1916838001178555620001db565b82800160010185558215620001db579182015b82811115620001da578251825591602001919060010190620001bd565b5b509050620001ea9190620001ee565b5090565b6200021391905b808211156200020f576000816000905550600101620001f5565b5090565b90565b61238680620002266000396000f3fe60806040523480156200001157600080fd5b5060043610620000e25760003560e01c80638da5cb5b1162000099578063cff77444116200006f578063cff774441462000577578063e362bcac14620005d2578063f012666e146200073f578063fc0c546a14620008a457620000e2565b80638da5cb5b146200037a5780639d76ea5814620003c6578063ae4cc894146200041257620000e2565b806305b3441014620000e757806318160ddd146200010757806327eef6f3146200012757806329dcb0cf14620001af5780633feb5f2b14620001cf5780636c02a93114620002f2575b600080fd5b620000f1620008f0565b6040518082815260200191505060405180910390f35b62000111620008f6565b6040518082815260200191505060405180910390f35b62000131620008fc565b6040518080602001828103825283818151815260200191508051906020019080838360005b838110156200017357808201518184015260208101905062000156565b50505050905090810190601f168015620001a15780820380516001836020036101000a031916815260200191505b509250505060405180910390f35b620001b96200099e565b6040518082815260200191505060405180910390f35b620001fe60048036036020811015620001e757600080fd5b8101908080359060200190929190505050620009a4565b604051808060200180602001848152602001838103835286818151815260200191508051906020019080838360005b838110156200024a5780820151818401526020810190506200022d565b50505050905090810190601f168015620002785780820380516001836020036101000a031916815260200191505b50838103825285818151815260200191508051906020019080838360005b83811015620002b357808201518184015260208101905062000296565b50505050905090810190601f168015620002e15780820380516001836020036101000a031916815260200191505b509550505050505060405180910390f35b620002fc62000b06565b6040518080602001828103825283818151815260200191508051906020019080838360005b838110156200033e57808201518184015260208101905062000321565b50505050905090810190601f1680156200036c5780820380516001836020036101000a031916815260200191505b509250505060405180910390f35b6200038462000ba8565b604051808273ffffffffffffffffffffffffffffffffffffffff1673ffffffffffffffffffffffffffffffffffffffff16815260200191505060405180910390f35b620003d062000bce565b604051808273ffffffffffffffffffffffffffffffffffffffff1673ffffffffffffffffffffffffffffffffffffffff16815260200191505060405180910390f35b62000575600480360360608110156200042a57600080fd5b81019080803590602001906401000000008111156200044857600080fd5b8201836020820111156200045b57600080fd5b803590602001918460018302840111640100000000831117156200047e57600080fd5b91908080601f016020809104026020016040519081016040528093929190818152602001838380828437600081840152601f19601f82011690508083019250505050505050919291929080359060200190640100000000811115620004e257600080fd5b820183602082011115620004f557600080fd5b803590602001918460018302840111640100000000831117156200051857600080fd5b91908080601f016020809104026020016040519081016040528093929190818152602001838380828437600081840152601f19601f8201169050808301925050505050505091929192908035906020019092919050505062000bf4565b005b620005bc600480360360208110156200058f57600080fd5b81019080803573ffffffffffffffffffffffffffffffffffffffff16906020019092919050505062000e2e565b6040518082815260200191505060405180910390f35b620005dc62000e46565b60405180806020018060200180602001858152602001848103845288818151815260200191508051906020019080838360005b838110156200062c5780820151818401526020810190506200060f565b50505050905090810190601f1680156200065a5780820380516001836020036101000a031916815260200191505b50848103835287818151815260200191508051906020019080838360005b838110156200069557808201518184015260208101905062000678565b50505050905090810190601f168015620006c35780820380516001836020036101000a031916815260200191505b50848103825286818151815260200191508051906020019080838360005b83811015620006fe578082015181840152602081019050620006e1565b50505050905090810190601f1680156200072c5780820380516001836020036101000a031916815260200191505b5097505050505050505060405180910390f35b620008a2600480360360608110156200075757600080fd5b81019080803590602001906401000000008111156200077557600080fd5b8201836020820111156200078857600080fd5b80359060200191846001830284011164010000000083111715620007ab57600080fd5b91908080601f016020809104026020016040519081016040528093929190818152602001838380828437600081840152601f19601f820116905080830192505050505050509192919290803590602001906401000000008111156200080f57600080fd5b8201836020820111156200082257600080fd5b803590602001918460018302840111640100000000831117156200084557600080fd5b91908080601f016020809104026020016040519081016040528093929190818152602001838380828437600081840152601f19601f8201169050808301925050505050505091929192908035906020019092919050505062001038565b005b620008ae6200110a565b604051808273ffffffffffffffffffffffffffffffffffffffff1673ffffffffffffffffffffffffffffffffffffffff16815260200191505060405180910390f35b60025481565b60045481565b60008054600181600116156101000203166002900480601f016020809104026020016040519081016040528092919081815260200182805460018160011615610100020316600290048015620009965780601f106200096a5761010080835404028352916020019162000996565b820191906000526020600020905b8154815290600101906020018083116200097857829003601f168201915b505050505081565b60035481565b600c602052806000526040600020600091509050806000018054600181600116156101000203166002900480601f01602080910402602001604051908101604052809291908181526020018280546001816001161561010002031660029004801562000a545780601f1062000a285761010080835404028352916020019162000a54565b820191906000526020600020905b81548152906001019060200180831162000a3657829003601f168201915b505050505090806001018054600181600116156101000203166002900480601f01602080910402602001604051908101604052809291908181526020018280546001816001161561010002031660029004801562000af65780601f1062000aca5761010080835404028352916020019162000af6565b820191906000526020600020905b81548152906001019060200180831162000ad857829003601f168201915b5050505050908060020154905083565b60018054600181600116156101000203166002900480601f01602080910402602001604051908101604052809291908181526020018280546001816001161561010002031660029004801562000ba05780601f1062000b745761010080835404028352916020019162000ba0565b820191906000526020600020905b81548152906001019060200180831162000b8257829003601f168201915b505050505081565b600560009054906101000a900473ffffffffffffffffffffffffffffffffffffffff1681565b600660009054906101000a900473ffffffffffffffffffffffffffffffffffffffff1681565b600560009054906101000a900473ffffffffffffffffffffffffffffffffffffffff1673ffffffffffffffffffffffffffffffffffffffff163373ffffffffffffffffffffffffffffffffffffffff161462000c4f57600080fd5b82828260405162000c609062001130565b808060200180602001848152602001838103835286818151815260200191508051906020019080838360005b8381101562000ca957808201518184015260208101905062000c8c565b50505050905090810190601f16801562000cd75780820380516001836020036101000a031916815260200191505b50838103825285818151815260200191508051906020019080838360005b8381101562000d1257808201518184015260208101905062000cf5565b50505050905090810190601f16801562000d405780820380516001836020036101000a031916815260200191505b5095505050505050604051809103906000f08015801562000d65573d6000803e3d6000fd5b50600760006101000a81548173ffffffffffffffffffffffffffffffffffffffff021916908373ffffffffffffffffffffffffffffffffffffffff160217905550600760009054906101000a900473ffffffffffffffffffffffffffffffffffffffff16600660006101000a81548173ffffffffffffffffffffffffffffffffffffffff021916908373ffffffffffffffffffffffffffffffffffffffff160217905550816001908051906020019062000e219291906200113e565b5080600481905550505050565b600d6020528060005260406000206000915090505481565b6008806000018054600181600116156101000203166002900480601f01602080910402602001604051908101604052809291908181526020018280546001816001161561010002031660029004801562000ee45780601f1062000eb85761010080835404028352916020019162000ee4565b820191906000526020600020905b81548152906001019060200180831162000ec657829003601f168201915b505050505090806001018054600181600116156101000203166002900480601f01602080910402602001604051908101604052809291908181526020018280546001816001161561010002031660029004801562000f865780601f1062000f5a5761010080835404028352916020019162000f86565b820191906000526020600020905b81548152906001019060200180831162000f6857829003601f168201915b505050505090806002018054600181600116156101000203166002900480601f016020809104026020016040519081016040528092919081815260200182805460018160011615610100020316600290048015620010285780601f1062000ffc5761010080835404028352916020019162001028565b820191906000526020600020905b8154815290600101906020018083116200100a57829003601f168201915b5050505050908060030154905084565b600560009054906101000a900473ffffffffffffffffffffffffffffffffffffffff1673ffffffffffffffffffffffffffffffffffffffff163373ffffffffffffffffffffffffffffffffffffffff16146200109357600080fd5b600060086000019080546001816001161561010002031660029004620010bb929190620011c5565b508260086001019080519060200190620010d79291906200113e565b508160086002019080519060200190620010f39291906200113e565b506201518081024201600860030181905550505050565b600760009054906101000a900473ffffffffffffffffffffffffffffffffffffffff1681565b6110d6806200127c83390190565b828054600181600116156101000203166002900490600052602060002090601f016020900481019282601f106200118157805160ff1916838001178555620011b2565b82800160010185558215620011b2579182015b82811115620011b157825182559160200191906001019062001194565b5b509050620011c1919062001253565b5090565b828054600181600116156101000203166002900490600052602060002090601f016020900481019282601f1062001200578054855562001240565b828001600101855582156200124057600052602060002091601f016020900482015b828111156200123f57825482559160010191906001019062001222565b5b5090506200124f919062001253565b5090565b6200127891905b80821115620012745760008160009055506001016200125a565b5090565b9056fe60806040526012600260006101000a81548160ff021916908360ff1602179055503480156200002d57600080fd5b50604051620010d6380380620010d6833981810160405260608110156200005357600080fd5b81019080805160405193929190846401000000008211156200007457600080fd5b838201915060208201858111156200008b57600080fd5b8251866001820283011164010000000082111715620000a957600080fd5b8083526020830192505050908051906020019080838360005b83811015620000df578082015181840152602081019050620000c2565b50505050905090810190601f1680156200010d5780820380516001836020036101000a031916815260200191505b50604052602001805160405193929190846401000000008211156200013157600080fd5b838201915060208201858111156200014857600080fd5b82518660018202830111640100000000821117156200016657600080fd5b8083526020830192505050908051906020019080838360005b838110156200019c5780820151818401526020810190506200017f565b50505050905090810190601f168015620001ca5780820380516001836020036101000a031916815260200191505b506040526020018051906020019092919050505033600460006101000a81548173ffffffffffffffffffffffffffffffffffffffff021916908373ffffffffffffffffffffffffffffffffffffffff16021790555080600560003373ffffffffffffffffffffffffffffffffffffffff1673ffffffffffffffffffffffffffffffffffffffff1681526020019081526020016000208190555082600090805190602001906200027b929190620002a5565b50816001908051906020019062000294929190620002a5565b508060038190555050505062000354565b828054600181600116156101000203166002900490600052602060002090601f016020900481019282601f10620002e857805160ff191683800117855562000319565b8280016001018555821562000319579182015b8281111562000318578251825591602001919060010190620002fb565b5b5090506200032891906200032c565b5090565b6200035191905b808211156200034d57600081600090555060010162000333565b5090565b90565b610d7280620003646000396000f3fe608060405234801561001057600080fd5b50600436106100b45760003560e01c806370a082311161007157806370a08231146102c25780638da5cb5b1461031a57806395d89b4114610364578063a44b47f7146103e7578063a9059cbb14610405578063dd62ed3e1461046b576100b4565b806306fdde03146100b9578063095ea7b31461013c57806318160ddd146101a257806323b872dd146101c057806327e235e314610246578063313ce5671461029e575b600080fd5b6100c16104e3565b6040518080602001828103825283818151815260200191508051906020019080838360005b838110156101015780820151818401526020810190506100e6565b50505050905090810190601f16801561012e5780820380516001836020036101000a031916815260200191505b509250505060405180910390f35b6101886004803603604081101561015257600080fd5b81019080803573ffffffffffffffffffffffffffffffffffffffff16906020019092919080359060200190929190505050610581565b604051808215151515815260200191505060405180910390f35b6101aa610673565b6040518082815260200191505060405180910390f35b61022c600480360360608110156101d657600080fd5b81019080803573ffffffffffffffffffffffffffffffffffffffff169060200190929190803573ffffffffffffffffffffffffffffffffffffffff1690602001909291908035906020019092919050505061067d565b604051808215151515815260200191505060405180910390f35b6102886004803603602081101561025c57600080fd5b81019080803573ffffffffffffffffffffffffffffffffffffffff169060200190929190505050610984565b6040518082815260200191505060405180910390f35b6102a661099c565b604051808260ff1660ff16815260200191505060405180910390f35b610304600480360360208110156102d857600080fd5b81019080803573ffffffffffffffffffffffffffffffffffffffff1690602001909291905050506109af565b6040518082815260200191505060405180910390f35b6103226109f8565b604051808273ffffffffffffffffffffffffffffffffffffffff1673ffffffffffffffffffffffffffffffffffffffff16815260200191505060405180910390f35b61036c610a1e565b6040518080602001828103825283818151815260200191508051906020019080838360005b838110156103ac578082015181840152602081019050610391565b50505050905090810190601f1680156103d95780820380516001836020036101000a031916815260200191505b509250505060405180910390f35b6103ef610abc565b6040518082815260200191505060405180910390f35b6104516004803603604081101561041b57600080fd5b81019080803573ffffffffffffffffffffffffffffffffffffffff16906020019092919080359060200190929190505050610ac2565b604051808215151515815260200191505060405180910390f35b6104cd6004803603604081101561048157600080fd5b81019080803573ffffffffffffffffffffffffffffffffffffffff169060200190929190803573ffffffffffffffffffffffffffffffffffffffff169060200190929190505050610cb6565b6040518082815260200191505060405180910390f35b60018054600181600116156101000203166002900480601f0160208091040260200160405190810160405280929190818152602001828054600181600116156101000203166002900480156105795780601f1061054e57610100808354040283529160200191610579565b820191906000526020600020905b81548152906001019060200180831161055c57829003601f168201915b505050505081565b600081600660003373ffffffffffffffffffffffffffffffffffffffff1673ffffffffffffffffffffffffffffffffffffffff16815260200190815260200160002060008573ffffffffffffffffffffffffffffffffffffffff1673ffffffffffffffffffffffffffffffffffffffff168152602001908152602001600020819055508273ffffffffffffffffffffffffffffffffffffffff163373ffffffffffffffffffffffffffffffffffffffff167f8c5be1e5ebec7d5bd14f71427d1e84f3dd0314c0f7b2291e5b200ac8c7c3b925846040518082815260200191505060405180910390a36001905092915050565b6000600354905090565b600081600560008673ffffffffffffffffffffffffffffffffffffffff1673ffffffffffffffffffffffffffffffffffffffff168152602001908152602001600020541015801561074a575081600660008673ffffffffffffffffffffffffffffffffffffffff1673ffffffffffffffffffffffffffffffffffffffff16815260200190815260200160002060003373ffffffffffffffffffffffffffffffffffffffff1673ffffffffffffffffffffffffffffffffffffffff1681526020019081526020016000205410155b80156107565750600082115b80156107e15750600560008473ffffffffffffffffffffffffffffffffffffffff1673ffffffffffffffffffffffffffffffffffffffff1681526020019081526020016000205482600560008673ffffffffffffffffffffffffffffffffffffffff1673ffffffffffffffffffffffffffffffffffffffff1681526020019081526020016000205401115b156109785781600560008673ffffffffffffffffffffffffffffffffffffffff1673ffffffffffffffffffffffffffffffffffffffff1681526020019081526020016000206000828254039250508190555081600660008673ffffffffffffffffffffffffffffffffffffffff1673ffffffffffffffffffffffffffffffffffffffff16815260200190815260200160002060003373ffffffffffffffffffffffffffffffffffffffff1673ffffffffffffffffffffffffffffffffffffffff1681526020019081526020016000206000828254039250508190555081600560008573ffffffffffffffffffffffffffffffffffffffff1673ffffffffffffffffffffffffffffffffffffffff168152602001908152602001600020600082825401925050819055508273ffffffffffffffffffffffffffffffffffffffff168473ffffffffffffffffffffffffffffffffffffffff167fddf252ad1be2c89b69c2b068fc378daa952ba7f163c4a11628f55a4df523b3ef846040518082815260200191505060405180910390a36001905061097d565b600090505b9392505050565b60056020528060005260406000206000915090505481565b600260009054906101000a900460ff1681565b6000600560008373ffffffffffffffffffffffffffffffffffffffff1673ffffffffffffffffffffffffffffffffffffffff168152602001908152602001600020549050919050565b600460009054906101000a900473ffffffffffffffffffffffffffffffffffffffff1681565b60008054600181600116156101000203166002900480601f016020809104026020016040519081016040528092919081815260200182805460018160011615610100020316600290048015610ab45780601f10610a8957610100808354040283529160200191610ab4565b820191906000526020600020905b815481529060010190602001808311610a9757829003601f168201915b505050505081565b60035481565b600081600560003373ffffffffffffffffffffffffffffffffffffffff1673ffffffffffffffffffffffffffffffffffffffff1681526020019081526020016000205410158015610b135750600082115b8015610b9e5750600560008473ffffffffffffffffffffffffffffffffffffffff1673ffffffffffffffffffffffffffffffffffffffff1681526020019081526020016000205482600560008673ffffffffffffffffffffffffffffffffffffffff1673ffffffffffffffffffffffffffffffffffffffff1681526020019081526020016000205401115b15610cab5781600560003373ffffffffffffffffffffffffffffffffffffffff1673ffffffffffffffffffffffffffffffffffffffff1681526020019081526020016000206000828254039250508190555081600560008573ffffffffffffffffffffffffffffffffffffffff1673ffffffffffffffffffffffffffffffffffffffff168152602001908152602001600020600082825401925050819055508273ffffffffffffffffffffffffffffffffffffffff163373ffffffffffffffffffffffffffffffffffffffff167fddf252ad1be2c89b69c2b068fc378daa952ba7f163c4a11628f55a4df523b3ef846040518082815260200191505060405180910390a360019050610cb0565b600090505b92915050565b6000600660008473ffffffffffffffffffffffffffffffffffffffff1673ffffffffffffffffffffffffffffffffffffffff16815260200190815260200160002060008373ffffffffffffffffffffffffffffffffffffffff1673ffffffffffffffffffffffffffffffffffffffff1681526020019081526020016000205490509291505056fea265627a7a72315820b506c7f361fc2a80091f9596b06db8e56bacfea45ae254ef5f94beed6788977b64736f6c63430005100032a265627a7a72315820c53cea35ee655940f652a798ce64abe2b9db40057fbeb508325728de452ada8464736f6c63430005100032",
  "source": "pragma solidity ^0.5.1;\n\nimport \"./TokenFactory.sol\";\nimport \"./SafeMath.sol\";\n\ncontract MovieContract {\n      using SafeMath for uint256;\n\n\t  string public movieName;\n\t  string public tokenName;\n\t  uint256 public creationDate;\n\t  uint256 public deadline;\n\t  uint256 public totalSupply;\n\t  address public owner;\n\t  address public tokenAddress;\n\nTokenFactory public token;\n\n\nconstructor(string memory _movieName, address payable _movieCreator) public{\n    owner = _movieCreator;\n    movieName = _movieName;\n\t}\n\n\tstruct movieDetails{\n    string name;\n    string details;\n    string ipfsHash;\n    uint256 deadline;\n  }\n\n  struct investorDetails{\n  \tstring name;\n  \tstring contactDetails;\n    uint256 tokensBought;\n  }\n\n   movieDetails public movie;\n\n\n  mapping (uint256 => investorDetails)public investors;\n  mapping (address => uint256 ) public investedAmount;\n\n  modifier  onlyOwner() { \n    require(msg.sender == owner); \n    _; \n  }\n  \n\n  function addMovie(string memory _details, string memory _ipfs, uint256 _timeInDays) public onlyOwner{\n    movie.name = movieName;\n    movie.details = _details;\n    movie.ipfsHash = _ipfs;\n    movie.deadline = now + _timeInDays * 1 days;\n  }\n\n  function  createMovieToken(string memory _symbol, string memory _name, uint256 _totalSupply) public onlyOwner{\n      token = new TokenFactory(_symbol, _name, _totalSupply);\n      tokenAddress = address(token);\n      tokenName = _name;\n      totalSupply = _totalSupply;\n  }\n  \n}\n",
  "sourcePath": "/home/zaryab/blockchain_begins/all_about_ethereum/dapps/CineBlocks/contracts/MovieContract.sol",
  "compiler": {
    "name": "solc",
    "version": "0.5.16+commit.9c3226ce.Emscripten.clang"
  },
  "schemaVersion": "3.0.23",
  "updatedAt": "2020-08-25T07:31:11.412Z",
  "devdoc": {
    "methods": {}
  },
  "userdoc": {
    "methods": {}
  }
}