{
  "contractName": "MovieContract",
  "abi": [
    {
      "inputs": [
        {
          "internalType": "string",
          "name": "_movieName",
          "type": "string"
        },
        {
          "internalType": "address payable",
          "name": "_movieCreator",
          "type": "address"
        }
      ],
      "payable": false,
      "stateMutability": "nonpayable",
      "type": "constructor"
    },
    {
      "constant": true,
      "inputs": [],
      "name": "creationDate",
      "outputs": [
        {
          "internalType": "uint256",
          "name": "",
          "type": "uint256"
        }
      ],
      "payable": false,
      "stateMutability": "view",
      "type": "function"
    },
    {
      "constant": true,
      "inputs": [],
      "name": "deadline",
      "outputs": [
        {
          "internalType": "uint256",
          "name": "",
          "type": "uint256"
        }
      ],
      "payable": false,
      "stateMutability": "view",
      "type": "function"
    },
    {
      "constant": true,
      "inputs": [],
      "name": "movie",
      "outputs": [
        {
          "internalType": "string",
          "name": "name",
          "type": "string"
        },
        {
          "internalType": "string",
          "name": "details",
          "type": "string"
        },
        {
          "internalType": "string",
          "name": "ipfsHash",
          "type": "string"
        },
        {
          "internalType": "uint256",
          "name": "deadline",
          "type": "uint256"
        }
      ],
      "payable": false,
      "stateMutability": "view",
      "type": "function"
    },
    {
      "constant": true,
      "inputs": [],
      "name": "movieName",
      "outputs": [
        {
          "internalType": "string",
          "name": "",
          "type": "string"
        }
      ],
      "payable": false,
      "stateMutability": "view",
      "type": "function"
    },
    {
      "constant": true,
      "inputs": [],
      "name": "owner",
      "outputs": [
        {
          "internalType": "address",
          "name": "",
          "type": "address"
        }
      ],
      "payable": false,
      "stateMutability": "view",
      "type": "function"
    },
    {
      "constant": true,
      "inputs": [],
      "name": "token",
      "outputs": [
        {
          "internalType": "contract TokenFactory",
          "name": "",
          "type": "address"
        }
      ],
      "payable": false,
      "stateMutability": "view",
      "type": "function"
    },
    {
      "constant": true,
      "inputs": [],
      "name": "tokenAddress",
      "outputs": [
        {
          "internalType": "address",
          "name": "",
          "type": "address"
        }
      ],
      "payable": false,
      "stateMutability": "view",
      "type": "function"
    },
    {
      "constant": true,
      "inputs": [],
      "name": "tokenName",
      "outputs": [
        {
          "internalType": "string",
          "name": "",
          "type": "string"
        }
      ],
      "payable": false,
      "stateMutability": "view",
      "type": "function"
    },
    {
      "constant": true,
      "inputs": [],
      "name": "totalSupply",
      "outputs": [
        {
          "internalType": "uint256",
          "name": "",
          "type": "uint256"
        }
      ],
      "payable": false,
      "stateMutability": "view",
      "type": "function"
    },
    {
      "constant": false,
      "inputs": [
        {
          "internalType": "string",
          "name": "_details",
          "type": "string"
        },
        {
          "internalType": "string",
          "name": "_ipfs",
          "type": "string"
        },
        {
          "internalType": "uint256",
          "name": "_timeInDays",
          "type": "uint256"
        }
      ],
      "name": "addMovie",
      "outputs": [],
      "payable": false,
      "stateMutability": "nonpayable",
      "type": "function"
    },
    {
      "constant": false,
      "inputs": [
        {
          "internalType": "string",
          "name": "_symbol",
          "type": "string"
        },
        {
          "internalType": "string",
          "name": "_name",
          "type": "string"
        },
        {
          "internalType": "uint256",
          "name": "_totalSupply",
          "type": "uint256"
        }
      ],
      "name": "createMovieToken",
      "outputs": [],
      "payable": false,
      "stateMutability": "nonpayable",
      "type": "function"
    }
  ],
  "bytecode": "0x60806040523480156200001157600080fd5b506040516200228a3803806200228a833981810160405260408110156200003757600080fd5b81019080805160405193929190846401000000008211156200005857600080fd5b838201915060208201858111156200006f57600080fd5b82518660018202830111640100000000821117156200008d57600080fd5b8083526020830192505050908051906020019080838360005b83811015620000c3578082015181840152602081019050620000a6565b50505050905090810190601f168015620000f15780820380516001836020036101000a031916815260200191505b506040526020018051906020019092919050505080600560006101000a81548173ffffffffffffffffffffffffffffffffffffffff021916908373ffffffffffffffffffffffffffffffffffffffff16021790555081600090805190602001906200015e92919062000167565b50505062000216565b828054600181600116156101000203166002900490600052602060002090601f016020900481019282601f10620001aa57805160ff1916838001178555620001db565b82800160010185558215620001db579182015b82811115620001da578251825591602001919060010190620001bd565b5b509050620001ea9190620001ee565b5090565b6200021391905b808211156200020f576000816000905550600101620001f5565b5090565b90565b61206480620002266000396000f3fe60806040523480156200001157600080fd5b5060043610620000b85760003560e01c80638da5cb5b116200007b5780638da5cb5b146200022d5780639d76ea581462000279578063ae4cc89414620002c5578063e362bcac146200042a578063f012666e1462000597578063fc0c546a14620006fc57620000b8565b806305b3441014620000bd57806318160ddd14620000dd57806327eef6f314620000fd57806329dcb0cf14620001855780636c02a93114620001a5575b600080fd5b620000c762000748565b6040518082815260200191505060405180910390f35b620000e76200074e565b6040518082815260200191505060405180910390f35b6200010762000754565b6040518080602001828103825283818151815260200191508051906020019080838360005b83811015620001495780820151818401526020810190506200012c565b50505050905090810190601f168015620001775780820380516001836020036101000a031916815260200191505b509250505060405180910390f35b6200018f620007f6565b6040518082815260200191505060405180910390f35b620001af620007fc565b6040518080602001828103825283818151815260200191508051906020019080838360005b83811015620001f1578082015181840152602081019050620001d4565b50505050905090810190601f1680156200021f5780820380516001836020036101000a031916815260200191505b509250505060405180910390f35b620002376200089e565b604051808273ffffffffffffffffffffffffffffffffffffffff1673ffffffffffffffffffffffffffffffffffffffff16815260200191505060405180910390f35b62000283620008c4565b604051808273ffffffffffffffffffffffffffffffffffffffff1673ffffffffffffffffffffffffffffffffffffffff16815260200191505060405180910390f35b6200042860048036036060811015620002dd57600080fd5b8101908080359060200190640100000000811115620002fb57600080fd5b8201836020820111156200030e57600080fd5b803590602001918460018302840111640100000000831117156200033157600080fd5b91908080601f016020809104026020016040519081016040528093929190818152602001838380828437600081840152601f19601f820116905080830192505050505050509192919290803590602001906401000000008111156200039557600080fd5b820183602082011115620003a857600080fd5b80359060200191846001830284011164010000000083111715620003cb57600080fd5b91908080601f016020809104026020016040519081016040528093929190818152602001838380828437600081840152601f19601f82011690508083019250505050505050919291929080359060200190929190505050620008ea565b005b6200043462000b24565b60405180806020018060200180602001858152602001848103845288818151815260200191508051906020019080838360005b838110156200048457808201518184015260208101905062000467565b50505050905090810190601f168015620004b25780820380516001836020036101000a031916815260200191505b50848103835287818151815260200191508051906020019080838360005b83811015620004ed578082015181840152602081019050620004d0565b50505050905090810190601f1680156200051b5780820380516001836020036101000a031916815260200191505b50848103825286818151815260200191508051906020019080838360005b838110156200055657808201518184015260208101905062000539565b50505050905090810190601f168015620005845780820380516001836020036101000a031916815260200191505b5097505050505050505060405180910390f35b620006fa60048036036060811015620005af57600080fd5b8101908080359060200190640100000000811115620005cd57600080fd5b820183602082011115620005e057600080fd5b803590602001918460018302840111640100000000831117156200060357600080fd5b91908080601f016020809104026020016040519081016040528093929190818152602001838380828437600081840152601f19601f820116905080830192505050505050509192919290803590602001906401000000008111156200066757600080fd5b8201836020820111156200067a57600080fd5b803590602001918460018302840111640100000000831117156200069d57600080fd5b91908080601f016020809104026020016040519081016040528093929190818152602001838380828437600081840152601f19601f8201169050808301925050505050505091929192908035906020019092919050505062000d16565b005b6200070662000de8565b604051808273ffffffffffffffffffffffffffffffffffffffff1673ffffffffffffffffffffffffffffffffffffffff16815260200191505060405180910390f35b60025481565b60045481565b60008054600181600116156101000203166002900480601f016020809104026020016040519081016040528092919081815260200182805460018160011615610100020316600290048015620007ee5780601f10620007c257610100808354040283529160200191620007ee565b820191906000526020600020905b815481529060010190602001808311620007d057829003601f168201915b505050505081565b60035481565b60018054600181600116156101000203166002900480601f016020809104026020016040519081016040528092919081815260200182805460018160011615610100020316600290048015620008965780601f106200086a5761010080835404028352916020019162000896565b820191906000526020600020905b8154815290600101906020018083116200087857829003601f168201915b505050505081565b600560009054906101000a900473ffffffffffffffffffffffffffffffffffffffff1681565b600660009054906101000a900473ffffffffffffffffffffffffffffffffffffffff1681565b600560009054906101000a900473ffffffffffffffffffffffffffffffffffffffff1673ffffffffffffffffffffffffffffffffffffffff163373ffffffffffffffffffffffffffffffffffffffff16146200094557600080fd5b828282604051620009569062000e0e565b808060200180602001848152602001838103835286818151815260200191508051906020019080838360005b838110156200099f57808201518184015260208101905062000982565b50505050905090810190601f168015620009cd5780820380516001836020036101000a031916815260200191505b50838103825285818151815260200191508051906020019080838360005b8381101562000a08578082015181840152602081019050620009eb565b50505050905090810190601f16801562000a365780820380516001836020036101000a031916815260200191505b5095505050505050604051809103906000f08015801562000a5b573d6000803e3d6000fd5b50600760006101000a81548173ffffffffffffffffffffffffffffffffffffffff021916908373ffffffffffffffffffffffffffffffffffffffff160217905550600760009054906101000a900473ffffffffffffffffffffffffffffffffffffffff16600660006101000a81548173ffffffffffffffffffffffffffffffffffffffff021916908373ffffffffffffffffffffffffffffffffffffffff160217905550816001908051906020019062000b1792919062000e1c565b5080600481905550505050565b6008806000018054600181600116156101000203166002900480601f01602080910402602001604051908101604052809291908181526020018280546001816001161561010002031660029004801562000bc25780601f1062000b965761010080835404028352916020019162000bc2565b820191906000526020600020905b81548152906001019060200180831162000ba457829003601f168201915b505050505090806001018054600181600116156101000203166002900480601f01602080910402602001604051908101604052809291908181526020018280546001816001161561010002031660029004801562000c645780601f1062000c385761010080835404028352916020019162000c64565b820191906000526020600020905b81548152906001019060200180831162000c4657829003601f168201915b505050505090806002018054600181600116156101000203166002900480601f01602080910402602001604051908101604052809291908181526020018280546001816001161561010002031660029004801562000d065780601f1062000cda5761010080835404028352916020019162000d06565b820191906000526020600020905b81548152906001019060200180831162000ce857829003601f168201915b5050505050908060030154905084565b600560009054906101000a900473ffffffffffffffffffffffffffffffffffffffff1673ffffffffffffffffffffffffffffffffffffffff163373ffffffffffffffffffffffffffffffffffffffff161462000d7157600080fd5b60006008600001908054600181600116156101000203166002900462000d9992919062000ea3565b50826008600101908051906020019062000db592919062000e1c565b50816008600201908051906020019062000dd192919062000e1c565b506201518081024201600860030181905550505050565b600760009054906101000a900473ffffffffffffffffffffffffffffffffffffffff1681565b6110d68062000f5a83390190565b828054600181600116156101000203166002900490600052602060002090601f016020900481019282601f1062000e5f57805160ff191683800117855562000e90565b8280016001018555821562000e90579182015b8281111562000e8f57825182559160200191906001019062000e72565b5b50905062000e9f919062000f31565b5090565b828054600181600116156101000203166002900490600052602060002090601f016020900481019282601f1062000ede578054855562000f1e565b8280016001018555821562000f1e57600052602060002091601f016020900482015b8281111562000f1d57825482559160010191906001019062000f00565b5b50905062000f2d919062000f31565b5090565b62000f5691905b8082111562000f5257600081600090555060010162000f38565b5090565b9056fe60806040526012600260006101000a81548160ff021916908360ff1602179055503480156200002d57600080fd5b50604051620010d6380380620010d6833981810160405260608110156200005357600080fd5b81019080805160405193929190846401000000008211156200007457600080fd5b838201915060208201858111156200008b57600080fd5b8251866001820283011164010000000082111715620000a957600080fd5b8083526020830192505050908051906020019080838360005b83811015620000df578082015181840152602081019050620000c2565b50505050905090810190601f1680156200010d5780820380516001836020036101000a031916815260200191505b50604052602001805160405193929190846401000000008211156200013157600080fd5b838201915060208201858111156200014857600080fd5b82518660018202830111640100000000821117156200016657600080fd5b8083526020830192505050908051906020019080838360005b838110156200019c5780820151818401526020810190506200017f565b50505050905090810190601f168015620001ca5780820380516001836020036101000a031916815260200191505b506040526020018051906020019092919050505033600460006101000a81548173ffffffffffffffffffffffffffffffffffffffff021916908373ffffffffffffffffffffffffffffffffffffffff16021790555080600560003373ffffffffffffffffffffffffffffffffffffffff1673ffffffffffffffffffffffffffffffffffffffff1681526020019081526020016000208190555082600090805190602001906200027b929190620002a5565b50816001908051906020019062000294929190620002a5565b508060038190555050505062000354565b828054600181600116156101000203166002900490600052602060002090601f016020900481019282601f10620002e857805160ff191683800117855562000319565b8280016001018555821562000319579182015b8281111562000318578251825591602001919060010190620002fb565b5b5090506200032891906200032c565b5090565b6200035191905b808211156200034d57600081600090555060010162000333565b5090565b90565b610d7280620003646000396000f3fe608060405234801561001057600080fd5b50600436106100b45760003560e01c806370a082311161007157806370a08231146102c25780638da5cb5b1461031a57806395d89b4114610364578063a44b47f7146103e7578063a9059cbb14610405578063dd62ed3e1461046b576100b4565b806306fdde03146100b9578063095ea7b31461013c57806318160ddd146101a257806323b872dd146101c057806327e235e314610246578063313ce5671461029e575b600080fd5b6100c16104e3565b6040518080602001828103825283818151815260200191508051906020019080838360005b838110156101015780820151818401526020810190506100e6565b50505050905090810190601f16801561012e5780820380516001836020036101000a031916815260200191505b509250505060405180910390f35b6101886004803603604081101561015257600080fd5b81019080803573ffffffffffffffffffffffffffffffffffffffff16906020019092919080359060200190929190505050610581565b604051808215151515815260200191505060405180910390f35b6101aa610673565b6040518082815260200191505060405180910390f35b61022c600480360360608110156101d657600080fd5b81019080803573ffffffffffffffffffffffffffffffffffffffff169060200190929190803573ffffffffffffffffffffffffffffffffffffffff1690602001909291908035906020019092919050505061067d565b604051808215151515815260200191505060405180910390f35b6102886004803603602081101561025c57600080fd5b81019080803573ffffffffffffffffffffffffffffffffffffffff169060200190929190505050610984565b6040518082815260200191505060405180910390f35b6102a661099c565b604051808260ff1660ff16815260200191505060405180910390f35b610304600480360360208110156102d857600080fd5b81019080803573ffffffffffffffffffffffffffffffffffffffff1690602001909291905050506109af565b6040518082815260200191505060405180910390f35b6103226109f8565b604051808273ffffffffffffffffffffffffffffffffffffffff1673ffffffffffffffffffffffffffffffffffffffff16815260200191505060405180910390f35b61036c610a1e565b6040518080602001828103825283818151815260200191508051906020019080838360005b838110156103ac578082015181840152602081019050610391565b50505050905090810190601f1680156103d95780820380516001836020036101000a031916815260200191505b509250505060405180910390f35b6103ef610abc565b6040518082815260200191505060405180910390f35b6104516004803603604081101561041b57600080fd5b81019080803573ffffffffffffffffffffffffffffffffffffffff16906020019092919080359060200190929190505050610ac2565b604051808215151515815260200191505060405180910390f35b6104cd6004803603604081101561048157600080fd5b81019080803573ffffffffffffffffffffffffffffffffffffffff169060200190929190803573ffffffffffffffffffffffffffffffffffffffff169060200190929190505050610cb6565b6040518082815260200191505060405180910390f35b60018054600181600116156101000203166002900480601f0160208091040260200160405190810160405280929190818152602001828054600181600116156101000203166002900480156105795780601f1061054e57610100808354040283529160200191610579565b820191906000526020600020905b81548152906001019060200180831161055c57829003601f168201915b505050505081565b600081600660003373ffffffffffffffffffffffffffffffffffffffff1673ffffffffffffffffffffffffffffffffffffffff16815260200190815260200160002060008573ffffffffffffffffffffffffffffffffffffffff1673ffffffffffffffffffffffffffffffffffffffff168152602001908152602001600020819055508273ffffffffffffffffffffffffffffffffffffffff163373ffffffffffffffffffffffffffffffffffffffff167f8c5be1e5ebec7d5bd14f71427d1e84f3dd0314c0f7b2291e5b200ac8c7c3b925846040518082815260200191505060405180910390a36001905092915050565b6000600354905090565b600081600560008673ffffffffffffffffffffffffffffffffffffffff1673ffffffffffffffffffffffffffffffffffffffff168152602001908152602001600020541015801561074a575081600660008673ffffffffffffffffffffffffffffffffffffffff1673ffffffffffffffffffffffffffffffffffffffff16815260200190815260200160002060003373ffffffffffffffffffffffffffffffffffffffff1673ffffffffffffffffffffffffffffffffffffffff1681526020019081526020016000205410155b80156107565750600082115b80156107e15750600560008473ffffffffffffffffffffffffffffffffffffffff1673ffffffffffffffffffffffffffffffffffffffff1681526020019081526020016000205482600560008673ffffffffffffffffffffffffffffffffffffffff1673ffffffffffffffffffffffffffffffffffffffff1681526020019081526020016000205401115b156109785781600560008673ffffffffffffffffffffffffffffffffffffffff1673ffffffffffffffffffffffffffffffffffffffff1681526020019081526020016000206000828254039250508190555081600660008673ffffffffffffffffffffffffffffffffffffffff1673ffffffffffffffffffffffffffffffffffffffff16815260200190815260200160002060003373ffffffffffffffffffffffffffffffffffffffff1673ffffffffffffffffffffffffffffffffffffffff1681526020019081526020016000206000828254039250508190555081600560008573ffffffffffffffffffffffffffffffffffffffff1673ffffffffffffffffffffffffffffffffffffffff168152602001908152602001600020600082825401925050819055508273ffffffffffffffffffffffffffffffffffffffff168473ffffffffffffffffffffffffffffffffffffffff167fddf252ad1be2c89b69c2b068fc378daa952ba7f163c4a11628f55a4df523b3ef846040518082815260200191505060405180910390a36001905061097d565b600090505b9392505050565b60056020528060005260406000206000915090505481565b600260009054906101000a900460ff1681565b6000600560008373ffffffffffffffffffffffffffffffffffffffff1673ffffffffffffffffffffffffffffffffffffffff168152602001908152602001600020549050919050565b600460009054906101000a900473ffffffffffffffffffffffffffffffffffffffff1681565b60008054600181600116156101000203166002900480601f016020809104026020016040519081016040528092919081815260200182805460018160011615610100020316600290048015610ab45780601f10610a8957610100808354040283529160200191610ab4565b820191906000526020600020905b815481529060010190602001808311610a9757829003601f168201915b505050505081565b60035481565b600081600560003373ffffffffffffffffffffffffffffffffffffffff1673ffffffffffffffffffffffffffffffffffffffff1681526020019081526020016000205410158015610b135750600082115b8015610b9e5750600560008473ffffffffffffffffffffffffffffffffffffffff1673ffffffffffffffffffffffffffffffffffffffff1681526020019081526020016000205482600560008673ffffffffffffffffffffffffffffffffffffffff1673ffffffffffffffffffffffffffffffffffffffff1681526020019081526020016000205401115b15610cab5781600560003373ffffffffffffffffffffffffffffffffffffffff1673ffffffffffffffffffffffffffffffffffffffff1681526020019081526020016000206000828254039250508190555081600560008573ffffffffffffffffffffffffffffffffffffffff1673ffffffffffffffffffffffffffffffffffffffff168152602001908152602001600020600082825401925050819055508273ffffffffffffffffffffffffffffffffffffffff163373ffffffffffffffffffffffffffffffffffffffff167fddf252ad1be2c89b69c2b068fc378daa952ba7f163c4a11628f55a4df523b3ef846040518082815260200191505060405180910390a360019050610cb0565b600090505b92915050565b6000600660008473ffffffffffffffffffffffffffffffffffffffff1673ffffffffffffffffffffffffffffffffffffffff16815260200190815260200160002060008373ffffffffffffffffffffffffffffffffffffffff1673ffffffffffffffffffffffffffffffffffffffff1681526020019081526020016000205490509291505056fea265627a7a72315820b506c7f361fc2a80091f9596b06db8e56bacfea45ae254ef5f94beed6788977b64736f6c63430005100032a265627a7a72315820d48b400630514a3c01789e19477f3e4c1237c02b3c9c431e6204658035f3046164736f6c63430005100032",
  "source": "pragma solidity ^0.5.1;\n\nimport \"./TokenFactory.sol\";\nimport \"./SafeMath.sol\";\n\ncontract MovieContract {\n      using SafeMath for uint256;\n\n\t  string public movieName;\n\t  string public tokenName;\n\t  uint256 public creationDate;\n\t  uint256 public deadline;\n\t  uint256 public totalSupply;\n\t  address public owner;\n\t  address public tokenAddress;\n\nTokenFactory public token;\n\n\nconstructor(string memory _movieName, address payable _movieCreator) public{\n    owner = _movieCreator;\n    movieName = _movieName;\n\t}\n\n\tstruct movieDetails{\n    string name;\n    string details;\n    string ipfsHash;\n    uint256 deadline;\n  }\n\n  modifier  onlyOwner() { \n    require(msg.sender == owner); \n    _; \n  }\n  \n  movieDetails public movie;\n\n  function addMovie(string memory _details, string memory _ipfs, uint256 _timeInDays) public onlyOwner{\n    movie.name = movieName;\n    movie.details = _details;\n    movie.ipfsHash = _ipfs;\n    movie.deadline = now + _timeInDays * 1 days;\n  }\n\n  function  createMovieToken(string memory _symbol, string memory _name, uint256 _totalSupply) public onlyOwner{\n      token = new TokenFactory(_symbol, _name, _totalSupply);\n      tokenAddress = address(token);\n      tokenName = _name;\n      totalSupply = _totalSupply;\n  }\n  \n}\n",
  "sourcePath": "/home/zaryab/blockchain_begins/all_about_ethereum/dapps/CineBlocks/contracts/MovieContract.sol",
  "compiler": {
    "name": "solc",
    "version": "0.5.16+commit.9c3226ce.Emscripten.clang"
  },
  "schemaVersion": "3.0.23",
  "updatedAt": "2020-08-24T14:21:45.635Z",
  "devdoc": {
    "methods": {}
  },
  "userdoc": {
    "methods": {}
  }
}